{
  "address": "0xA17EcfDf652F590997989aABc51a504E4F533CDE",
  "abi": [
    {
      "inputs": [],
      "stateMutability": "nonpayable",
      "type": "constructor"
    },
    {
      "inputs": [],
      "name": "INSUFFICIENT_FUNDS",
      "type": "error"
    },
    {
      "inputs": [],
      "name": "MINT_ONLY_NORMAL_TOKENS",
      "type": "error"
    },
    {
      "inputs": [],
      "name": "MINT_ONLY_VIP_TOKENS",
      "type": "error"
    },
    {
      "inputs": [],
      "name": "NOT_ENOUGH_HASHRATE_AVAILABLE",
      "type": "error"
    },
    {
      "inputs": [],
      "name": "NULL_BALANCE",
      "type": "error"
    },
    {
      "inputs": [],
      "name": "ONLY_WHITELISTED_ALLOWED",
      "type": "error"
    },
    {
      "inputs": [],
      "name": "SALE_IS_NOT_LIVE",
      "type": "error"
    },
    {
      "inputs": [],
      "name": "TOKEN_NOT_EXIST",
      "type": "error"
    },
    {
      "inputs": [],
      "name": "UNABLE_TO_TRANSFER_FUNDS",
      "type": "error"
    },
    {
      "anonymous": false,
      "inputs": [
        {
          "indexed": true,
          "internalType": "address",
          "name": "account",
          "type": "address"
        },
        {
          "indexed": true,
          "internalType": "address",
          "name": "operator",
          "type": "address"
        },
        {
          "indexed": false,
          "internalType": "bool",
          "name": "approved",
          "type": "bool"
        }
      ],
      "name": "ApprovalForAll",
      "type": "event"
    },
    {
      "anonymous": false,
      "inputs": [
        {
          "indexed": true,
          "internalType": "address",
          "name": "previousOwner",
          "type": "address"
        },
        {
          "indexed": true,
          "internalType": "address",
          "name": "newOwner",
          "type": "address"
        }
      ],
      "name": "OwnershipTransferred",
      "type": "event"
    },
    {
      "anonymous": false,
      "inputs": [
        {
          "indexed": true,
          "internalType": "address",
          "name": "operator",
          "type": "address"
        },
        {
          "indexed": true,
          "internalType": "address",
          "name": "from",
          "type": "address"
        },
        {
          "indexed": true,
          "internalType": "address",
          "name": "to",
          "type": "address"
        },
        {
          "indexed": false,
          "internalType": "uint256[]",
          "name": "ids",
          "type": "uint256[]"
        },
        {
          "indexed": false,
          "internalType": "uint256[]",
          "name": "values",
          "type": "uint256[]"
        }
      ],
      "name": "TransferBatch",
      "type": "event"
    },
    {
      "anonymous": false,
      "inputs": [
        {
          "indexed": true,
          "internalType": "address",
          "name": "operator",
          "type": "address"
        },
        {
          "indexed": true,
          "internalType": "address",
          "name": "from",
          "type": "address"
        },
        {
          "indexed": true,
          "internalType": "address",
          "name": "to",
          "type": "address"
        },
        {
          "indexed": false,
          "internalType": "uint256",
          "name": "id",
          "type": "uint256"
        },
        {
          "indexed": false,
          "internalType": "uint256",
          "name": "value",
          "type": "uint256"
        }
      ],
      "name": "TransferSingle",
      "type": "event"
    },
    {
      "anonymous": false,
      "inputs": [
        {
          "indexed": false,
          "internalType": "string",
          "name": "value",
          "type": "string"
        },
        {
          "indexed": true,
          "internalType": "uint256",
          "name": "id",
          "type": "uint256"
        }
      ],
      "name": "URI",
      "type": "event"
    },
    {
      "inputs": [],
      "name": "THForPresale",
      "outputs": [
        {
          "internalType": "uint256",
          "name": "",
          "type": "uint256"
        }
      ],
      "stateMutability": "view",
      "type": "function"
    },
    {
      "inputs": [],
      "name": "THForPublicsale",
      "outputs": [
        {
          "internalType": "uint256",
          "name": "",
          "type": "uint256"
        }
      ],
      "stateMutability": "view",
      "type": "function"
    },
    {
      "inputs": [
        {
          "internalType": "address",
          "name": "account",
          "type": "address"
        },
        {
          "internalType": "uint256",
          "name": "id",
          "type": "uint256"
        }
      ],
      "name": "balanceOf",
      "outputs": [
        {
          "internalType": "uint256",
          "name": "",
          "type": "uint256"
        }
      ],
      "stateMutability": "view",
      "type": "function"
    },
    {
      "inputs": [
        {
          "internalType": "address[]",
          "name": "accounts",
          "type": "address[]"
        },
        {
          "internalType": "uint256[]",
          "name": "ids",
          "type": "uint256[]"
        }
      ],
      "name": "balanceOfBatch",
      "outputs": [
        {
          "internalType": "uint256[]",
          "name": "",
          "type": "uint256[]"
        }
      ],
      "stateMutability": "view",
      "type": "function"
    },
    {
      "inputs": [
        {
          "internalType": "address",
          "name": "user",
          "type": "address"
        }
      ],
      "name": "balancesOf",
      "outputs": [
        {
          "internalType": "uint256",
          "name": "_vipBlack",
          "type": "uint256"
        },
        {
          "internalType": "uint256",
          "name": "_vipBlue",
          "type": "uint256"
        },
        {
          "internalType": "uint256",
          "name": "_black",
          "type": "uint256"
        },
        {
          "internalType": "uint256",
          "name": "_blue",
          "type": "uint256"
        }
      ],
      "stateMutability": "view",
      "type": "function"
    },
    {
      "inputs": [],
      "name": "black",
      "outputs": [
        {
          "internalType": "uint8",
          "name": "id",
          "type": "uint8"
        },
        {
          "internalType": "uint256",
          "name": "hashRate",
          "type": "uint256"
        },
        {
          "internalType": "uint256",
          "name": "price",
          "type": "uint256"
        },
        {
          "internalType": "uint256",
          "name": "terraHashedSold",
          "type": "uint256"
        }
      ],
      "stateMutability": "view",
      "type": "function"
    },
    {
      "inputs": [],
      "name": "blue",
      "outputs": [
        {
          "internalType": "uint8",
          "name": "id",
          "type": "uint8"
        },
        {
          "internalType": "uint256",
          "name": "hashRate",
          "type": "uint256"
        },
        {
          "internalType": "uint256",
          "name": "price",
          "type": "uint256"
        },
        {
          "internalType": "uint256",
          "name": "terraHashedSold",
          "type": "uint256"
        }
      ],
      "stateMutability": "view",
      "type": "function"
    },
    {
      "inputs": [
        {
          "internalType": "bool",
          "name": "newStatus",
          "type": "bool"
        }
      ],
      "name": "changeWhiteListStatus",
      "outputs": [],
      "stateMutability": "nonpayable",
      "type": "function"
    },
    {
      "inputs": [
        {
          "internalType": "address",
          "name": "",
          "type": "address"
        }
      ],
      "name": "contactInfo",
      "outputs": [
        {
          "internalType": "string",
          "name": "bitCoinAddress",
          "type": "string"
        },
        {
          "internalType": "string",
          "name": "emailAddress",
          "type": "string"
        }
      ],
      "stateMutability": "view",
      "type": "function"
    },
    {
      "inputs": [
        {
          "internalType": "uint256",
          "name": "id",
          "type": "uint256"
        }
      ],
      "name": "exists",
      "outputs": [
        {
          "internalType": "bool",
          "name": "",
          "type": "bool"
        }
      ],
      "stateMutability": "view",
      "type": "function"
    },
    {
      "inputs": [
        {
          "internalType": "uint256",
          "name": "_THForpresale",
          "type": "uint256"
        },
        {
          "internalType": "uint256",
          "name": "_THForPublicsale",
          "type": "uint256"
        }
      ],
      "name": "extendTerraHashes",
      "outputs": [],
      "stateMutability": "nonpayable",
      "type": "function"
    },
    {
      "inputs": [
        {
          "internalType": "address",
          "name": "user",
          "type": "address"
        }
      ],
      "name": "hashesOf",
      "outputs": [
        {
          "internalType": "uint256",
          "name": "_vipBlackHash",
          "type": "uint256"
        },
        {
          "internalType": "uint256",
          "name": "_vipBlueHash",
          "type": "uint256"
        },
        {
          "internalType": "uint256",
          "name": "_blackHash",
          "type": "uint256"
        },
        {
          "internalType": "uint256",
          "name": "_blueHash",
          "type": "uint256"
        }
      ],
      "stateMutability": "view",
      "type": "function"
    },
    {
      "inputs": [
        {
          "internalType": "address",
          "name": "account",
          "type": "address"
        },
        {
          "internalType": "address",
          "name": "operator",
          "type": "address"
        }
      ],
      "name": "isApprovedForAll",
      "outputs": [
        {
          "internalType": "bool",
          "name": "",
          "type": "bool"
        }
      ],
      "stateMutability": "view",
      "type": "function"
    },
    {
      "inputs": [
        {
          "internalType": "address",
          "name": "",
          "type": "address"
        }
      ],
      "name": "isWhiteListed",
      "outputs": [
        {
          "internalType": "bool",
          "name": "",
          "type": "bool"
        }
      ],
      "stateMutability": "view",
      "type": "function"
    },
    {
      "inputs": [
        {
          "internalType": "enum BitStackerNFT.Category",
          "name": "_category",
          "type": "uint8"
        },
        {
          "internalType": "uint256",
          "name": "_amount",
          "type": "uint256"
        },
        {
          "components": [
            {
              "internalType": "string",
              "name": "bitCoinAddress",
              "type": "string"
            },
            {
              "internalType": "string",
              "name": "emailAddress",
              "type": "string"
            }
          ],
          "internalType": "struct BitStackerNFT.ContactInfo",
          "name": "_contactInfo",
          "type": "tuple"
        }
      ],
      "name": "mint",
      "outputs": [],
      "stateMutability": "payable",
      "type": "function"
    },
    {
      "inputs": [],
      "name": "name",
      "outputs": [
        {
          "internalType": "string",
          "name": "",
          "type": "string"
        }
      ],
      "stateMutability": "view",
      "type": "function"
    },
    {
      "inputs": [],
      "name": "onlyWhiteListed",
      "outputs": [
        {
          "internalType": "bool",
          "name": "",
          "type": "bool"
        }
      ],
      "stateMutability": "view",
      "type": "function"
    },
    {
      "inputs": [],
      "name": "owner",
      "outputs": [
        {
          "internalType": "address",
          "name": "",
          "type": "address"
        }
      ],
      "stateMutability": "view",
      "type": "function"
    },
    {
      "inputs": [],
      "name": "renounceOwnership",
      "outputs": [],
      "stateMutability": "nonpayable",
      "type": "function"
    },
    {
      "inputs": [
        {
          "components": [
            {
              "internalType": "string",
              "name": "bitCoinAddress",
              "type": "string"
            },
            {
              "internalType": "string",
              "name": "emailAddress",
              "type": "string"
            }
          ],
          "internalType": "struct BitStackerNFT.ContactInfo",
          "name": "_contactInfo",
          "type": "tuple"
        }
      ],
      "name": "resetContactInfo",
      "outputs": [],
      "stateMutability": "nonpayable",
      "type": "function"
    },
    {
      "inputs": [
        {
          "internalType": "address",
          "name": "from",
          "type": "address"
        },
        {
          "internalType": "address",
          "name": "to",
          "type": "address"
        },
        {
          "internalType": "uint256[]",
          "name": "ids",
          "type": "uint256[]"
        },
        {
          "internalType": "uint256[]",
          "name": "amounts",
          "type": "uint256[]"
        },
        {
          "internalType": "bytes",
          "name": "data",
          "type": "bytes"
        }
      ],
      "name": "safeBatchTransferFrom",
      "outputs": [],
      "stateMutability": "nonpayable",
      "type": "function"
    },
    {
      "inputs": [
        {
          "internalType": "address",
          "name": "from",
          "type": "address"
        },
        {
          "internalType": "address",
          "name": "to",
          "type": "address"
        },
        {
          "internalType": "uint256",
          "name": "id",
          "type": "uint256"
        },
        {
          "internalType": "uint256",
          "name": "amount",
          "type": "uint256"
        },
        {
          "internalType": "bytes",
          "name": "data",
          "type": "bytes"
        }
      ],
      "name": "safeTransferFrom",
      "outputs": [],
      "stateMutability": "nonpayable",
      "type": "function"
    },
    {
      "inputs": [],
      "name": "saleType",
      "outputs": [
        {
          "internalType": "enum BitStackerNFT.SaleTpe",
          "name": "",
          "type": "uint8"
        }
      ],
      "stateMutability": "view",
      "type": "function"
    },
    {
      "inputs": [
        {
          "internalType": "address",
          "name": "operator",
          "type": "address"
        },
        {
          "internalType": "bool",
          "name": "approved",
          "type": "bool"
        }
      ],
      "name": "setApprovalForAll",
      "outputs": [],
      "stateMutability": "nonpayable",
      "type": "function"
    },
    {
      "inputs": [
        {
          "internalType": "enum BitStackerNFT.SaleTpe",
          "name": "_saleType",
          "type": "uint8"
        }
      ],
      "name": "setSaleType",
      "outputs": [],
      "stateMutability": "nonpayable",
      "type": "function"
    },
    {
      "inputs": [
        {
          "internalType": "bytes4",
          "name": "interfaceId",
          "type": "bytes4"
        }
      ],
      "name": "supportsInterface",
      "outputs": [
        {
          "internalType": "bool",
          "name": "",
          "type": "bool"
        }
      ],
      "stateMutability": "view",
      "type": "function"
    },
    {
      "inputs": [],
      "name": "terrahashesAvailabe",
      "outputs": [
        {
          "internalType": "uint256",
          "name": "",
          "type": "uint256"
        }
      ],
      "stateMutability": "view",
      "type": "function"
    },
    {
      "inputs": [],
      "name": "totalPresaleTerraHashesSold",
      "outputs": [
        {
          "internalType": "uint256",
          "name": "",
          "type": "uint256"
        }
      ],
      "stateMutability": "view",
      "type": "function"
    },
    {
      "inputs": [],
      "name": "totalPublicsaleterraHashesSold",
      "outputs": [
        {
          "internalType": "uint256",
          "name": "",
          "type": "uint256"
        }
      ],
      "stateMutability": "view",
      "type": "function"
    },
    {
      "inputs": [
        {
          "internalType": "uint256",
          "name": "id",
          "type": "uint256"
        }
      ],
      "name": "totalSupply",
      "outputs": [
        {
          "internalType": "uint256",
          "name": "",
          "type": "uint256"
        }
      ],
      "stateMutability": "view",
      "type": "function"
    },
    {
      "inputs": [],
      "name": "totalTerraHashes",
      "outputs": [
        {
          "internalType": "uint256",
          "name": "",
          "type": "uint256"
        }
      ],
      "stateMutability": "view",
      "type": "function"
    },
    {
      "inputs": [
        {
          "internalType": "address",
          "name": "newOwner",
          "type": "address"
        }
      ],
      "name": "transferOwnership",
      "outputs": [],
      "stateMutability": "nonpayable",
      "type": "function"
    },
    {
      "inputs": [
        {
          "internalType": "uint256",
          "name": "_tokenid",
          "type": "uint256"
        }
      ],
      "name": "uri",
      "outputs": [
        {
          "internalType": "string",
          "name": "",
          "type": "string"
        }
      ],
      "stateMutability": "view",
      "type": "function"
    },
    {
      "inputs": [],
      "name": "vipBlack",
      "outputs": [
        {
          "internalType": "uint8",
          "name": "id",
          "type": "uint8"
        },
        {
          "internalType": "uint256",
          "name": "hashRate",
          "type": "uint256"
        },
        {
          "internalType": "uint256",
          "name": "price",
          "type": "uint256"
        },
        {
          "internalType": "uint256",
          "name": "terraHashedSold",
          "type": "uint256"
        }
      ],
      "stateMutability": "view",
      "type": "function"
    },
    {
      "inputs": [],
      "name": "vipBlue",
      "outputs": [
        {
          "internalType": "uint8",
          "name": "id",
          "type": "uint8"
        },
        {
          "internalType": "uint256",
          "name": "hashRate",
          "type": "uint256"
        },
        {
          "internalType": "uint256",
          "name": "price",
          "type": "uint256"
        },
        {
          "internalType": "uint256",
          "name": "terraHashedSold",
          "type": "uint256"
        }
      ],
      "stateMutability": "view",
      "type": "function"
    },
    {
      "inputs": [
        {
          "internalType": "address[]",
          "name": "addresses",
          "type": "address[]"
        }
      ],
      "name": "whiteListUsers",
      "outputs": [],
      "stateMutability": "nonpayable",
      "type": "function"
    },
    {
      "inputs": [],
      "name": "withdrawFunds",
      "outputs": [],
      "stateMutability": "nonpayable",
      "type": "function"
    }
  ],
  "transactionHash": "0x2c23b196caac585a471d8d789b4c04e21071b0895cea5c57b4fc53704d4fd4dd",
  "args": [],
  "numDeployments": 1,
  "solcInputHash": "131ba9370f1863a86755a7bc6ccbd098",
  "bytecode": "0x60806040526005805460ff19169055619c4060078190556008819055620000279080620002d3565b60095560408051608080820183526000808352602860208085018290528486018390526060948501839052600a805460ff19908116909155600b92909255600c839055600d8390558551808501875260018082526004828401819052828901869052918701859052600e805485169091179055600f819055601084905560118481558751808701895260028082526014828601819052828b0188905291890187905260128054871690911790556013819055859055601585905587519586018852600380875286840183905286890186905295909601849052601680549093169094179091556017929092556018819055601955825180840190935281835270426974537461636b657220546f6b656e7360781b92019182526200014e91601a916200022d565b5060405180608001604052806044815260200162002e3b6044913980516200017f91601b916020909101906200022d565b50601d805460ff191690553480156200019757600080fd5b50604080516020810190915260008152620001b233620001c4565b620001bd8162000214565b5062000337565b600080546001600160a01b038381166001600160a01b0319831681178455604051919092169283917f8be0079c531659141344cd1fd0a4f28419497f9722a3daafe3b4186f6b6457e09190a35050565b8051620002299060039060208401906200022d565b5050565b8280546200023b90620002fa565b90600052602060002090601f0160209004810192826200025f5760008555620002aa565b82601f106200027a57805160ff1916838001178555620002aa565b82800160010185558215620002aa579182015b82811115620002aa5782518255916020019190600101906200028d565b50620002b8929150620002bc565b5090565b5b80821115620002b85760008155600101620002bd565b60008219821115620002f557634e487b7160e01b600052601160045260246000fd5b500190565b600181811c908216806200030f57607f821691505b602082108114156200033157634e487b7160e01b600052602260045260246000fd5b50919050565b612af480620003476000396000f3fe6080604052600436106102195760003560e01c80638a95eb2011610123578063bdd3ad2c116100ab578063ed18f0a71161006f578063ed18f0a7146106b9578063f242432a146106df578063f2fde38b146106ff578063f90e33301461071f578063ffbc49cf1461073257600080fd5b8063bdd3ad2c1461060f578063c56ea1ee1461062f578063d80df24214610645578063e985e9c51461065b578063e9de7cc0146106a457600080fd5b8063a22cb465116100f2578063a22cb46514610562578063a475907414610582578063b50a707b1461059c578063b5aaf542146105c2578063bd85b039146105e257600080fd5b80638a95eb20146104c65780638b8fd3bd146104db5780638da5cb5b14610525578063a0d2a9cc1461054d57600080fd5b80634f558e79116101a65780636ff19822116101755780636ff198221461042d578063715018a61461045b578063736810fe1461047057806374621b7d1461049057806380dc37a2146104b057600080fd5b80634f558e79146103675780635bcc7928146103965780636392a51f146103bd5780636f9170f6146103fd57600080fd5b80631dac86d8116101ed5780631dac86d8146102c357806324600fc3146102e55780632eb2c2d6146102fa578063475fda0e1461031a5780634e1273f41461033a57600080fd5b8062fdd58e1461021e57806301ffc9a71461025157806306fdde03146102815780630e89341c146102a3575b600080fd5b34801561022a57600080fd5b5061023e610239366004611f17565b610758565b6040519081526020015b60405180910390f35b34801561025d57600080fd5b5061027161026c366004611f57565b6107f0565b6040519015158152602001610248565b34801561028d57600080fd5b50610296610842565b6040516102489190611fd3565b3480156102af57600080fd5b506102966102be366004611fe6565b6108d0565b3480156102cf57600080fd5b506102e36102de36600461213d565b610934565b005b3480156102f157600080fd5b506102e3610979565b34801561030657600080fd5b506102e3610315366004612205565b610a18565b34801561032657600080fd5b506102e361033536600461231b565b610a64565b34801561034657600080fd5b5061035a61035536600461234f565b610ada565b60405161024891906123ed565b34801561037357600080fd5b50610271610382366004611fe6565b600090815260046020526040902054151590565b3480156103a257600080fd5b50601d546103b09060ff1681565b6040516102489190612416565b3480156103c957600080fd5b506103dd6103d836600461243e565b610c03565b604080519485526020850193909352918301526060820152608001610248565b34801561040957600080fd5b5061027161041836600461243e565b60066020526000908152604090205460ff1681565b34801561043957600080fd5b5061044d61044836600461243e565b610c44565b604051610248929190612459565b34801561046757600080fd5b506102e3610d70565b34801561047c57600080fd5b506102e361048b366004612497565b610d84565b34801561049c57600080fd5b506102e36104ab3660046124b2565b610d9f565b3480156104bc57600080fd5b5061023e60095481565b3480156104d257600080fd5b5061023e610dc2565b3480156104e757600080fd5b506012546013546014546015546105019360ff1692919084565b6040805160ff90951685526020850193909352918301526060820152608001610248565b34801561053157600080fd5b506000546040516001600160a01b039091168152602001610248565b34801561055957600080fd5b5061023e610df0565b34801561056e57600080fd5b506102e361057d3660046124d4565b610e02565b34801561058e57600080fd5b506005546102719060ff1681565b3480156105a857600080fd5b50600a54600b54600c54600d546105019360ff1692919084565b3480156105ce57600080fd5b506102e36105dd366004612507565b610e0d565b3480156105ee57600080fd5b5061023e6105fd366004611fe6565b60009081526004602052604090205490565b34801561061b57600080fd5b506103dd61062a36600461243e565b610e3c565b34801561063b57600080fd5b5061023e60085481565b34801561065157600080fd5b5061023e60075481565b34801561066757600080fd5b50610271610676366004612528565b6001600160a01b03918216600090815260026020908152604080832093909416825291909152205460ff1690565b3480156106b057600080fd5b5061023e610eae565b3480156106c557600080fd5b506016546017546018546019546105019360ff1692919084565b3480156106eb57600080fd5b506102e36106fa366004612552565b610ec0565b34801561070b57600080fd5b506102e361071a36600461243e565b610f05565b6102e361072d3660046125b6565b610f7e565b34801561073e57600080fd5b50600e54600f546010546011546105019360ff1692919084565b60006001600160a01b0383166107c85760405162461bcd60e51b815260206004820152602a60248201527f455243313135353a2061646472657373207a65726f206973206e6f742061207660448201526930b634b21037bbb732b960b11b60648201526084015b60405180910390fd5b5060009081526001602090815260408083206001600160a01b03949094168352929052205490565b60006001600160e01b03198216636cdb3d1360e11b148061082157506001600160e01b031982166303a24d0760e21b145b8061083c57506301ffc9a760e01b6001600160e01b03198316145b92915050565b601a805461084f90612612565b80601f016020809104026020016040519081016040528092919081815260200182805461087b90612612565b80156108c85780601f1061089d576101008083540402835291602001916108c8565b820191906000526020600020905b8154815290600101906020018083116108ab57829003601f168201915b505050505081565b6000818152600460205260409020546060906108ff5760405163090a452960e31b815260040160405180910390fd5b601b61090d8360ff16611392565b60405160200161091e929190612669565b6040516020818303038152906040529050919050565b336000908152601c6020908152604090912082518051849361095a928492910190611e62565b5060208281015180516109739260018501920190611e62565b50505050565b610981611497565b47806109a05760405163341a36d360e21b815260040160405180910390fd5b600080546040516001600160a01b039091169083908381818185875af1925050503d80600081146109ed576040519150601f19603f3d011682016040523d82523d6000602084013e6109f2565b606091505b5050905080610a14576040516312e0222360e21b815260040160405180910390fd5b5050565b6001600160a01b038516331480610a345750610a348533610676565b610a505760405162461bcd60e51b81526004016107bf9061271b565b610a5d85858585856114f1565b5050505050565b610a6c611497565b60005b81518160ff161015610a1457600160066000848460ff1681518110610a9657610a9661276a565b6020908102919091018101516001600160a01b03168252810191909152604001600020805460ff191691151591909117905580610ad281612796565b915050610a6f565b60608151835114610b3f5760405162461bcd60e51b815260206004820152602960248201527f455243313135353a206163636f756e747320616e6420696473206c656e677468604482015268040dad2e6dac2e8c6d60bb1b60648201526084016107bf565b600083516001600160401b03811115610b5a57610b5a611fff565b604051908082528060200260200182016040528015610b83578160200160208202803683370190505b50905060005b8451811015610bfb57610bce858281518110610ba757610ba761276a565b6020026020010151858381518110610bc157610bc161276a565b6020026020010151610758565b828281518110610be057610be061276a565b6020908102919091010152610bf4816127b6565b9050610b89565b509392505050565b600080600080610c14856000610758565b9350610c21856001610758565b9250610c2e856002610758565b9150610c3b856003610758565b90509193509193565b601c60205260009081526040902080548190610c5f90612612565b80601f0160208091040260200160405190810160405280929190818152602001828054610c8b90612612565b8015610cd85780601f10610cad57610100808354040283529160200191610cd8565b820191906000526020600020905b815481529060010190602001808311610cbb57829003601f168201915b505050505090806001018054610ced90612612565b80601f0160208091040260200160405190810160405280929190818152602001828054610d1990612612565b8015610d665780601f10610d3b57610100808354040283529160200191610d66565b820191906000526020600020905b815481529060010190602001808311610d4957829003601f168201915b5050505050905082565b610d78611497565b610d8260006116d7565b565b610d8c611497565b6005805460ff1916911515919091179055565b610da7611497565b60078290556008819055610dbb81836127d1565b6009555050565b6000610dcc610eae565b610dd4610df0565b610dde91906127d1565b600954610deb91906127e9565b905090565b601154600d54600091610deb916127d1565b610a14338383611727565b610e15611497565b601d805482919060ff19166001836002811115610e3457610e34612400565b021790555050565b600080600080600a60010154610e53866000610758565b610e5d9190612800565b600f54909450610e6e866001610758565b610e789190612800565b601354909350610e89866002610758565b610e939190612800565b601754909250610ea4866003610758565b610c3b9190612800565b601954601554600091610deb916127d1565b6001600160a01b038516331480610edc5750610edc8533610676565b610ef85760405162461bcd60e51b81526004016107bf9061271b565b610a5d8585858585611808565b610f0d611497565b6001600160a01b038116610f725760405162461bcd60e51b815260206004820152602660248201527f4f776e61626c653a206e6577206f776e657220697320746865207a65726f206160448201526564647265737360d01b60648201526084016107bf565b610f7b816116d7565b50565b6000601d5460ff166002811115610f9757610f97612400565b1415610fb65760405163336affa360e01b815260040160405180910390fd5b60055460ff168015610fd857503360009081526006602052604090205460ff16155b15610ff657604051631dda623160e01b815260040160405180910390fd5b6001601d5460ff16600281111561100f5761100f612400565b14156111bd57600083600381111561102957611029612400565b14156110f957600c54600090611040908490612800565b90508034101561106357604051631cf2628760e31b815260040160405180910390fd5b600b54600090611074908590612800565b905060075481611082610df0565b61108c91906127d1565b11156110ab5760405163b519295f60e01b815260040160405180910390fd5b80600a60030160008282546110c091906127d1565b909155506110f29050338660038111156110dc576110dc612400565b8660405180602001604052806000815250611944565b505061134b565b600183600381111561110d5761110d612400565b14156111a457601054600090611124908490612800565b90508034101561114757604051631cf2628760e31b815260040160405180910390fd5b600f54600090611158908590612800565b905060075481611166610df0565b61117091906127d1565b111561118f5760405163b519295f60e01b815260040160405180910390fd5b80600e60030160008282546110c091906127d1565b604051634d85ed5d60e11b815260040160405180910390fd5b6002601d5460ff1660028111156111d6576111d6612400565b141561134b5760028360038111156111f0576111f0612400565b141561128757601454600090611207908490612800565b90508034101561122a57604051631cf2628760e31b815260040160405180910390fd5b60135460009061123b908590612800565b905060085481611249610eae565b61125391906127d1565b11156112725760405163b519295f60e01b815260040160405180910390fd5b80601260030160008282546110c091906127d1565b600383600381111561129b5761129b612400565b1415611332576018546000906112b2908490612800565b9050803410156112d557604051631cf2628760e31b815260040160405180910390fd5b6017546000906112e6908590612800565b9050600854816112f4610eae565b6112fe91906127d1565b111561131d5760405163b519295f60e01b815260040160405180910390fd5b80601660030160008282546110c091906127d1565b60405163019d1a8f60e21b815260040160405180910390fd5b336000908152601c60209081526040909120825180518493611371928492910190611e62565b50602082810151805161138a9260018501920190611e62565b505050505050565b6060816113b65750506040805180820190915260018152600360fc1b602082015290565b8160005b81156113e057806113ca816127b6565b91506113d99050600a83612835565b91506113ba565b6000816001600160401b038111156113fa576113fa611fff565b6040519080825280601f01601f191660200182016040528015611424576020820181803683370190505b5090505b841561148f576114396001836127e9565b9150611446600a86612849565b6114519060306127d1565b60f81b8183815181106114665761146661276a565b60200101906001600160f81b031916908160001a905350611488600a86612835565b9450611428565b949350505050565b6000546001600160a01b03163314610d825760405162461bcd60e51b815260206004820181905260248201527f4f776e61626c653a2063616c6c6572206973206e6f7420746865206f776e657260448201526064016107bf565b81518351146115535760405162461bcd60e51b815260206004820152602860248201527f455243313135353a2069647320616e6420616d6f756e7473206c656e677468206044820152670dad2e6dac2e8c6d60c31b60648201526084016107bf565b6001600160a01b0384166115795760405162461bcd60e51b81526004016107bf9061285d565b33611588818787878787611a69565b60005b84518110156116715760008582815181106115a8576115a861276a565b6020026020010151905060008583815181106115c6576115c661276a565b60209081029190910181015160008481526001835260408082206001600160a01b038e1683529093529190912054909150818110156116175760405162461bcd60e51b81526004016107bf906128a2565b60008381526001602090815260408083206001600160a01b038e8116855292528083208585039055908b168252812080548492906116569084906127d1565b925050819055505050508061166a906127b6565b905061158b565b50846001600160a01b0316866001600160a01b0316826001600160a01b03167f4a39dc06d4c0dbc64b70af90fd698a233a518aa5d07e595d983b8c0526c8f7fb87876040516116c19291906128ec565b60405180910390a461138a818787878787611be2565b600080546001600160a01b038381166001600160a01b0319831681178455604051919092169283917f8be0079c531659141344cd1fd0a4f28419497f9722a3daafe3b4186f6b6457e09190a35050565b816001600160a01b0316836001600160a01b0316141561179b5760405162461bcd60e51b815260206004820152602960248201527f455243313135353a2073657474696e6720617070726f76616c20737461747573604482015268103337b91039b2b63360b91b60648201526084016107bf565b6001600160a01b03838116600081815260026020908152604080832094871680845294825291829020805460ff191686151590811790915591519182527f17307eab39ab6107e8899845ad3d59bd9653f200f220920489ca2b5937696c31910160405180910390a3505050565b6001600160a01b03841661182e5760405162461bcd60e51b81526004016107bf9061285d565b33600061183a85611d4d565b9050600061184785611d4d565b9050611857838989858589611a69565b60008681526001602090815260408083206001600160a01b038c1684529091529020548581101561189a5760405162461bcd60e51b81526004016107bf906128a2565b60008781526001602090815260408083206001600160a01b038d8116855292528083208985039055908a168252812080548892906118d99084906127d1565b909155505060408051888152602081018890526001600160a01b03808b16928c821692918816917fc3d58168c5ae7397731d063d5bbf3d657854427343f4c083240f7aacaa2d0f62910160405180910390a4611939848a8a8a8a8a611d98565b505050505050505050565b6001600160a01b0384166119a45760405162461bcd60e51b815260206004820152602160248201527f455243313135353a206d696e7420746f20746865207a65726f206164647265736044820152607360f81b60648201526084016107bf565b3360006119b085611d4d565b905060006119bd85611d4d565b90506119ce83600089858589611a69565b60008681526001602090815260408083206001600160a01b038b16845290915281208054879290611a009084906127d1565b909155505060408051878152602081018790526001600160a01b03808a1692600092918716917fc3d58168c5ae7397731d063d5bbf3d657854427343f4c083240f7aacaa2d0f62910160405180910390a4611a6083600089898989611d98565b50505050505050565b6001600160a01b038516611af05760005b8351811015611aee57828181518110611a9557611a9561276a565b602002602001015160046000868481518110611ab357611ab361276a565b602002602001015181526020019081526020016000206000828254611ad891906127d1565b90915550611ae79050816127b6565b9050611a7a565b505b6001600160a01b03841661138a5760005b8351811015611a60576000848281518110611b1e57611b1e61276a565b602002602001015190506000848381518110611b3c57611b3c61276a565b6020026020010151905060006004600084815260200190815260200160002054905081811015611bbf5760405162461bcd60e51b815260206004820152602860248201527f455243313135353a206275726e20616d6f756e74206578636565647320746f74604482015267616c537570706c7960c01b60648201526084016107bf565b60009283526004602052604090922091039055611bdb816127b6565b9050611b01565b6001600160a01b0384163b1561138a5760405163bc197c8160e01b81526001600160a01b0385169063bc197c8190611c269089908990889088908890600401612911565b602060405180830381600087803b158015611c4057600080fd5b505af1925050508015611c70575060408051601f3d908101601f19168201909252611c6d9181019061296f565b60015b611d1d57611c7c61298c565b806308c379a01415611cb65750611c916129a8565b80611c9c5750611cb8565b8060405162461bcd60e51b81526004016107bf9190611fd3565b505b60405162461bcd60e51b815260206004820152603460248201527f455243313135353a207472616e7366657220746f206e6f6e20455243313135356044820152732932b1b2b4bb32b91034b6b83632b6b2b73a32b960611b60648201526084016107bf565b6001600160e01b0319811663bc197c8160e01b14611a605760405162461bcd60e51b81526004016107bf90612a31565b60408051600180825281830190925260609160009190602080830190803683370190505090508281600081518110611d8757611d8761276a565b602090810291909101015292915050565b6001600160a01b0384163b1561138a5760405163f23a6e6160e01b81526001600160a01b0385169063f23a6e6190611ddc9089908990889088908890600401612a79565b602060405180830381600087803b158015611df657600080fd5b505af1925050508015611e26575060408051601f3d908101601f19168201909252611e239181019061296f565b60015b611e3257611c7c61298c565b6001600160e01b0319811663f23a6e6160e01b14611a605760405162461bcd60e51b81526004016107bf90612a31565b828054611e6e90612612565b90600052602060002090601f016020900481019282611e905760008555611ed6565b82601f10611ea957805160ff1916838001178555611ed6565b82800160010185558215611ed6579182015b82811115611ed6578251825591602001919060010190611ebb565b50611ee2929150611ee6565b5090565b5b80821115611ee25760008155600101611ee7565b80356001600160a01b0381168114611f1257600080fd5b919050565b60008060408385031215611f2a57600080fd5b611f3383611efb565b946020939093013593505050565b6001600160e01b031981168114610f7b57600080fd5b600060208284031215611f6957600080fd5b8135611f7481611f41565b9392505050565b60005b83811015611f96578181015183820152602001611f7e565b838111156109735750506000910152565b60008151808452611fbf816020860160208601611f7b565b601f01601f19169290920160200192915050565b602081526000611f746020830184611fa7565b600060208284031215611ff857600080fd5b5035919050565b634e487b7160e01b600052604160045260246000fd5b601f8201601f191681016001600160401b038111828210171561203a5761203a611fff565b6040525050565b600082601f83011261205257600080fd5b81356001600160401b0381111561206b5761206b611fff565b604051612082601f8301601f191660200182612015565b81815284602083860101111561209757600080fd5b816020850160208301376000918101602001919091529392505050565b6000604082840312156120c657600080fd5b604051604081016001600160401b0382821081831117156120e9576120e9611fff565b81604052829350843591508082111561210157600080fd5b61210d86838701612041565b8352602085013591508082111561212357600080fd5b5061213085828601612041565b6020830152505092915050565b60006020828403121561214f57600080fd5b81356001600160401b0381111561216557600080fd5b61148f848285016120b4565b60006001600160401b0382111561218a5761218a611fff565b5060051b60200190565b600082601f8301126121a557600080fd5b813560206121b282612171565b6040516121bf8282612015565b83815260059390931b85018201928281019150868411156121df57600080fd5b8286015b848110156121fa57803583529183019183016121e3565b509695505050505050565b600080600080600060a0868803121561221d57600080fd5b61222686611efb565b945061223460208701611efb565b935060408601356001600160401b038082111561225057600080fd5b61225c89838a01612194565b9450606088013591508082111561227257600080fd5b61227e89838a01612194565b9350608088013591508082111561229457600080fd5b506122a188828901612041565b9150509295509295909350565b600082601f8301126122bf57600080fd5b813560206122cc82612171565b6040516122d98282612015565b83815260059390931b85018201928281019150868411156122f957600080fd5b8286015b848110156121fa5761230e81611efb565b83529183019183016122fd565b60006020828403121561232d57600080fd5b81356001600160401b0381111561234357600080fd5b61148f848285016122ae565b6000806040838503121561236257600080fd5b82356001600160401b038082111561237957600080fd5b612385868387016122ae565b9350602085013591508082111561239b57600080fd5b506123a885828601612194565b9150509250929050565b600081518084526020808501945080840160005b838110156123e2578151875295820195908201906001016123c6565b509495945050505050565b602081526000611f7460208301846123b2565b634e487b7160e01b600052602160045260246000fd5b602081016003831061243857634e487b7160e01b600052602160045260246000fd5b91905290565b60006020828403121561245057600080fd5b611f7482611efb565b60408152600061246c6040830185611fa7565b828103602084015261247e8185611fa7565b95945050505050565b80358015158114611f1257600080fd5b6000602082840312156124a957600080fd5b611f7482612487565b600080604083850312156124c557600080fd5b50508035926020909101359150565b600080604083850312156124e757600080fd5b6124f083611efb565b91506124fe60208401612487565b90509250929050565b60006020828403121561251957600080fd5b813560038110611f7457600080fd5b6000806040838503121561253b57600080fd5b61254483611efb565b91506124fe60208401611efb565b600080600080600060a0868803121561256a57600080fd5b61257386611efb565b945061258160208701611efb565b9350604086013592506060860135915060808601356001600160401b038111156125aa57600080fd5b6122a188828901612041565b6000806000606084860312156125cb57600080fd5b8335600481106125da57600080fd5b92506020840135915060408401356001600160401b038111156125fc57600080fd5b612608868287016120b4565b9150509250925092565b600181811c9082168061262657607f821691505b6020821081141561264757634e487b7160e01b600052602260045260246000fd5b50919050565b6000815161265f818560208601611f7b565b9290920192915050565b600080845481600182811c91508083168061268557607f831692505b60208084108214156126a557634e487b7160e01b86526022600452602486fd5b8180156126b957600181146126ca576126f7565b60ff198616895284890196506126f7565b60008b81526020902060005b868110156126ef5781548b8201529085019083016126d6565b505084890196505b50505050505061247e61270a828661264d565b64173539b7b760d91b815260050190565b6020808252602f908201527f455243313135353a2063616c6c6572206973206e6f7420746f6b656e206f776e60408201526e195c881b9bdc88185c1c1c9bdd9959608a1b606082015260800190565b634e487b7160e01b600052603260045260246000fd5b634e487b7160e01b600052601160045260246000fd5b600060ff821660ff8114156127ad576127ad612780565b60010192915050565b60006000198214156127ca576127ca612780565b5060010190565b600082198211156127e4576127e4612780565b500190565b6000828210156127fb576127fb612780565b500390565b600081600019048311821515161561281a5761281a612780565b500290565b634e487b7160e01b600052601260045260246000fd5b6000826128445761284461281f565b500490565b6000826128585761285861281f565b500690565b60208082526025908201527f455243313135353a207472616e7366657220746f20746865207a65726f206164604082015264647265737360d81b606082015260800190565b6020808252602a908201527f455243313135353a20696e73756666696369656e742062616c616e636520666f60408201526939103a3930b739b332b960b11b606082015260800190565b6040815260006128ff60408301856123b2565b828103602084015261247e81856123b2565b6001600160a01b0386811682528516602082015260a06040820181905260009061293d908301866123b2565b828103606084015261294f81866123b2565b905082810360808401526129638185611fa7565b98975050505050505050565b60006020828403121561298157600080fd5b8151611f7481611f41565b600060033d11156129a55760046000803e5060005160e01c5b90565b600060443d10156129b65790565b6040516003193d81016004833e81513d6001600160401b0381602484011181841117156129e557505050505090565b82850191508151818111156129fd5750505050505090565b843d8701016020828501011115612a175750505050505090565b612a2660208286010187612015565b509095945050505050565b60208082526028908201527f455243313135353a204552433131353552656365697665722072656a656374656040820152676420746f6b656e7360c01b606082015260800190565b6001600160a01b03868116825285166020820152604081018490526060810183905260a060808201819052600090612ab390830184611fa7565b97965050505050505056fea2646970667358221220e99a23a7aad41fa448f24fa18bad35cfa85dcf30840c535dfa5df0fab2aa524c64736f6c6343000809003368747470733a2f2f697066732e696f2f697066732f516d65566f614a7035705a6245626f4e4c735a415637446e587346485a526d6276513352656e64616d576f5858312f",
  "devdoc": {
    "kind": "dev",
    "methods": {
      "balanceOf(address,uint256)": {
        "details": "See {IERC1155-balanceOf}. Requirements: - `account` cannot be the zero address."
      },
      "balanceOfBatch(address[],uint256[])": {
        "details": "See {IERC1155-balanceOfBatch}. Requirements: - `accounts` and `ids` must have the same length."
      },
      "exists(uint256)": {
        "details": "Indicates whether any token exist with a given id, or not."
      },
      "isApprovedForAll(address,address)": {
        "details": "See {IERC1155-isApprovedForAll}."
      },
      "owner()": {
        "details": "Returns the address of the current owner."
      },
      "renounceOwnership()": {
        "details": "Leaves the contract without owner. It will not be possible to call `onlyOwner` functions anymore. Can only be called by the current owner. NOTE: Renouncing ownership will leave the contract without an owner, thereby removing any functionality that is only available to the owner."
      },
      "safeBatchTransferFrom(address,address,uint256[],uint256[],bytes)": {
        "details": "See {IERC1155-safeBatchTransferFrom}."
      },
      "safeTransferFrom(address,address,uint256,uint256,bytes)": {
        "details": "See {IERC1155-safeTransferFrom}."
      },
      "setApprovalForAll(address,bool)": {
        "details": "See {IERC1155-setApprovalForAll}."
      },
      "supportsInterface(bytes4)": {
        "details": "See {IERC165-supportsInterface}."
      },
      "totalSupply(uint256)": {
        "details": "Total amount of tokens in with a given id."
      },
      "transferOwnership(address)": {
        "details": "Transfers ownership of the contract to a new account (`newOwner`). Can only be called by the current owner."
      }
    },
    "version": 1
  },
  "userdoc": {
    "kind": "user",
    "methods": {
      "setSaleType(uint8)": {
        "notice": "functions for administration"
      }
    },
    "version": 1
  },
  "storageLayout": {
    "storage": [
      {
        "astId": 7,
        "contract": "contracts/BitStackerNFT.sol:BitStackerNFT",
        "label": "_owner",
        "offset": 0,
        "slot": "0",
        "type": "t_address"
      },
      {
        "astId": 138,
        "contract": "contracts/BitStackerNFT.sol:BitStackerNFT",
        "label": "_balances",
        "offset": 0,
        "slot": "1",
        "type": "t_mapping(t_uint256,t_mapping(t_address,t_uint256))"
      },
      {
        "astId": 144,
        "contract": "contracts/BitStackerNFT.sol:BitStackerNFT",
        "label": "_operatorApprovals",
        "offset": 0,
        "slot": "2",
        "type": "t_mapping(t_address,t_mapping(t_address,t_bool))"
      },
      {
        "astId": 146,
        "contract": "contracts/BitStackerNFT.sol:BitStackerNFT",
        "label": "_uri",
        "offset": 0,
        "slot": "3",
        "type": "t_string_storage"
      },
      {
        "astId": 1508,
        "contract": "contracts/BitStackerNFT.sol:BitStackerNFT",
        "label": "_totalSupply",
        "offset": 0,
        "slot": "4",
        "type": "t_mapping(t_uint256,t_uint256)"
      },
      {
        "astId": 2281,
        "contract": "contracts/BitStackerNFT.sol:BitStackerNFT",
        "label": "onlyWhiteListed",
        "offset": 0,
        "slot": "5",
        "type": "t_bool"
      },
      {
        "astId": 2285,
        "contract": "contracts/BitStackerNFT.sol:BitStackerNFT",
        "label": "isWhiteListed",
        "offset": 0,
        "slot": "6",
        "type": "t_mapping(t_address,t_bool)"
      },
      {
        "astId": 2288,
        "contract": "contracts/BitStackerNFT.sol:BitStackerNFT",
        "label": "THForPresale",
        "offset": 0,
        "slot": "7",
        "type": "t_uint256"
      },
      {
        "astId": 2291,
        "contract": "contracts/BitStackerNFT.sol:BitStackerNFT",
        "label": "THForPublicsale",
        "offset": 0,
        "slot": "8",
        "type": "t_uint256"
      },
      {
        "astId": 2296,
        "contract": "contracts/BitStackerNFT.sol:BitStackerNFT",
        "label": "totalTerraHashes",
        "offset": 0,
        "slot": "9",
        "type": "t_uint256"
      },
      {
        "astId": 2305,
        "contract": "contracts/BitStackerNFT.sol:BitStackerNFT",
        "label": "vipBlack",
        "offset": 0,
        "slot": "10",
        "type": "t_struct(Tokentype)2362_storage"
      },
      {
        "astId": 2314,
        "contract": "contracts/BitStackerNFT.sol:BitStackerNFT",
        "label": "vipBlue",
        "offset": 0,
        "slot": "14",
        "type": "t_struct(Tokentype)2362_storage"
      },
      {
        "astId": 2323,
        "contract": "contracts/BitStackerNFT.sol:BitStackerNFT",
        "label": "black",
        "offset": 0,
        "slot": "18",
        "type": "t_struct(Tokentype)2362_storage"
      },
      {
        "astId": 2332,
        "contract": "contracts/BitStackerNFT.sol:BitStackerNFT",
        "label": "blue",
        "offset": 0,
        "slot": "22",
        "type": "t_struct(Tokentype)2362_storage"
      },
      {
        "astId": 2335,
        "contract": "contracts/BitStackerNFT.sol:BitStackerNFT",
        "label": "name",
        "offset": 0,
        "slot": "26",
        "type": "t_string_storage"
      },
      {
        "astId": 2338,
        "contract": "contracts/BitStackerNFT.sol:BitStackerNFT",
        "label": "baseURL",
        "offset": 0,
        "slot": "27",
        "type": "t_string_storage"
      },
      {
        "astId": 2343,
        "contract": "contracts/BitStackerNFT.sol:BitStackerNFT",
        "label": "contactInfo",
        "offset": 0,
        "slot": "28",
        "type": "t_mapping(t_address,t_struct(ContactInfo)2348_storage)"
      },
      {
        "astId": 2371,
        "contract": "contracts/BitStackerNFT.sol:BitStackerNFT",
        "label": "saleType",
        "offset": 0,
        "slot": "29",
        "type": "t_enum(SaleTpe)2366"
      }
    ],
    "types": {
      "t_address": {
        "encoding": "inplace",
        "label": "address",
        "numberOfBytes": "20"
      },
      "t_bool": {
        "encoding": "inplace",
        "label": "bool",
        "numberOfBytes": "1"
      },
      "t_enum(SaleTpe)2366": {
        "encoding": "inplace",
        "label": "enum BitStackerNFT.SaleTpe",
        "numberOfBytes": "1"
      },
      "t_mapping(t_address,t_bool)": {
        "encoding": "mapping",
        "key": "t_address",
        "label": "mapping(address => bool)",
        "numberOfBytes": "32",
        "value": "t_bool"
      },
      "t_mapping(t_address,t_mapping(t_address,t_bool))": {
        "encoding": "mapping",
        "key": "t_address",
        "label": "mapping(address => mapping(address => bool))",
        "numberOfBytes": "32",
        "value": "t_mapping(t_address,t_bool)"
      },
      "t_mapping(t_address,t_struct(ContactInfo)2348_storage)": {
        "encoding": "mapping",
        "key": "t_address",
        "label": "mapping(address => struct BitStackerNFT.ContactInfo)",
        "numberOfBytes": "32",
        "value": "t_struct(ContactInfo)2348_storage"
      },
      "t_mapping(t_address,t_uint256)": {
        "encoding": "mapping",
        "key": "t_address",
        "label": "mapping(address => uint256)",
        "numberOfBytes": "32",
        "value": "t_uint256"
      },
      "t_mapping(t_uint256,t_mapping(t_address,t_uint256))": {
        "encoding": "mapping",
        "key": "t_uint256",
        "label": "mapping(uint256 => mapping(address => uint256))",
        "numberOfBytes": "32",
        "value": "t_mapping(t_address,t_uint256)"
      },
      "t_mapping(t_uint256,t_uint256)": {
        "encoding": "mapping",
        "key": "t_uint256",
        "label": "mapping(uint256 => uint256)",
        "numberOfBytes": "32",
        "value": "t_uint256"
      },
      "t_string_storage": {
        "encoding": "bytes",
        "label": "string",
        "numberOfBytes": "32"
      },
      "t_struct(ContactInfo)2348_storage": {
        "encoding": "inplace",
        "label": "struct BitStackerNFT.ContactInfo",
        "members": [
          {
            "astId": 2345,
            "contract": "contracts/BitStackerNFT.sol:BitStackerNFT",
            "label": "bitCoinAddress",
            "offset": 0,
            "slot": "0",
            "type": "t_string_storage"
          },
          {
            "astId": 2347,
            "contract": "contracts/BitStackerNFT.sol:BitStackerNFT",
            "label": "emailAddress",
            "offset": 0,
            "slot": "1",
            "type": "t_string_storage"
          }
        ],
        "numberOfBytes": "64"
      },
      "t_struct(Tokentype)2362_storage": {
        "encoding": "inplace",
        "label": "struct BitStackerNFT.Tokentype",
        "members": [
          {
            "astId": 2355,
            "contract": "contracts/BitStackerNFT.sol:BitStackerNFT",
            "label": "id",
            "offset": 0,
            "slot": "0",
            "type": "t_uint8"
          },
          {
            "astId": 2357,
            "contract": "contracts/BitStackerNFT.sol:BitStackerNFT",
            "label": "hashRate",
            "offset": 0,
            "slot": "1",
            "type": "t_uint256"
          },
          {
            "astId": 2359,
            "contract": "contracts/BitStackerNFT.sol:BitStackerNFT",
            "label": "price",
            "offset": 0,
            "slot": "2",
            "type": "t_uint256"
          },
          {
            "astId": 2361,
            "contract": "contracts/BitStackerNFT.sol:BitStackerNFT",
            "label": "terraHashedSold",
            "offset": 0,
            "slot": "3",
            "type": "t_uint256"
          }
        ],
        "numberOfBytes": "128"
      },
      "t_uint256": {
        "encoding": "inplace",
        "label": "uint256",
        "numberOfBytes": "32"
      },
      "t_uint8": {
        "encoding": "inplace",
        "label": "uint8",
        "numberOfBytes": "1"
      }
    }
  }
}