{
  "address": "0x5FbDB2315678afecb367f032d93F642f64180aa3",
  "abi": [
    {
      "inputs": [],
      "stateMutability": "nonpayable",
      "type": "constructor"
    },
    {
      "inputs": [],
      "name": "INSUFFICIENT_FUNDS",
      "type": "error"
    },
    {
      "inputs": [],
      "name": "MINT_ONLY_NORMAL_TOKENS",
      "type": "error"
    },
    {
      "inputs": [],
      "name": "MINT_ONLY_VIP_TOKENS",
      "type": "error"
    },
    {
      "inputs": [],
      "name": "NOT_ENOUGH_HATHRATE_AVAILABLE",
      "type": "error"
    },
    {
      "inputs": [],
      "name": "NULL_BALANCE",
      "type": "error"
    },
    {
      "inputs": [],
      "name": "SALE_IS_NOT_LIVE",
      "type": "error"
    },
    {
      "inputs": [],
      "name": "TOKEN_NOT_EXIST",
      "type": "error"
    },
    {
      "inputs": [],
      "name": "UNABLE_TO_TRANSFER_FUNDS",
      "type": "error"
    },
    {
      "anonymous": false,
      "inputs": [
        {
          "indexed": true,
          "internalType": "address",
          "name": "account",
          "type": "address"
        },
        {
          "indexed": true,
          "internalType": "address",
          "name": "operator",
          "type": "address"
        },
        {
          "indexed": false,
          "internalType": "bool",
          "name": "approved",
          "type": "bool"
        }
      ],
      "name": "ApprovalForAll",
      "type": "event"
    },
    {
      "anonymous": false,
      "inputs": [
        {
          "indexed": true,
          "internalType": "address",
          "name": "previousOwner",
          "type": "address"
        },
        {
          "indexed": true,
          "internalType": "address",
          "name": "newOwner",
          "type": "address"
        }
      ],
      "name": "OwnershipTransferred",
      "type": "event"
    },
    {
      "anonymous": false,
      "inputs": [
        {
          "indexed": true,
          "internalType": "address",
          "name": "operator",
          "type": "address"
        },
        {
          "indexed": true,
          "internalType": "address",
          "name": "from",
          "type": "address"
        },
        {
          "indexed": true,
          "internalType": "address",
          "name": "to",
          "type": "address"
        },
        {
          "indexed": false,
          "internalType": "uint256[]",
          "name": "ids",
          "type": "uint256[]"
        },
        {
          "indexed": false,
          "internalType": "uint256[]",
          "name": "values",
          "type": "uint256[]"
        }
      ],
      "name": "TransferBatch",
      "type": "event"
    },
    {
      "anonymous": false,
      "inputs": [
        {
          "indexed": true,
          "internalType": "address",
          "name": "operator",
          "type": "address"
        },
        {
          "indexed": true,
          "internalType": "address",
          "name": "from",
          "type": "address"
        },
        {
          "indexed": true,
          "internalType": "address",
          "name": "to",
          "type": "address"
        },
        {
          "indexed": false,
          "internalType": "uint256",
          "name": "id",
          "type": "uint256"
        },
        {
          "indexed": false,
          "internalType": "uint256",
          "name": "value",
          "type": "uint256"
        }
      ],
      "name": "TransferSingle",
      "type": "event"
    },
    {
      "anonymous": false,
      "inputs": [
        {
          "indexed": false,
          "internalType": "string",
          "name": "value",
          "type": "string"
        },
        {
          "indexed": true,
          "internalType": "uint256",
          "name": "id",
          "type": "uint256"
        }
      ],
      "name": "URI",
      "type": "event"
    },
    {
      "inputs": [],
      "name": "THForPresale",
      "outputs": [
        {
          "internalType": "uint256",
          "name": "",
          "type": "uint256"
        }
      ],
      "stateMutability": "view",
      "type": "function"
    },
    {
      "inputs": [],
      "name": "THForPublicsale",
      "outputs": [
        {
          "internalType": "uint256",
          "name": "",
          "type": "uint256"
        }
      ],
      "stateMutability": "view",
      "type": "function"
    },
    {
      "inputs": [
        {
          "internalType": "address",
          "name": "account",
          "type": "address"
        },
        {
          "internalType": "uint256",
          "name": "id",
          "type": "uint256"
        }
      ],
      "name": "balanceOf",
      "outputs": [
        {
          "internalType": "uint256",
          "name": "",
          "type": "uint256"
        }
      ],
      "stateMutability": "view",
      "type": "function"
    },
    {
      "inputs": [
        {
          "internalType": "address[]",
          "name": "accounts",
          "type": "address[]"
        },
        {
          "internalType": "uint256[]",
          "name": "ids",
          "type": "uint256[]"
        }
      ],
      "name": "balanceOfBatch",
      "outputs": [
        {
          "internalType": "uint256[]",
          "name": "",
          "type": "uint256[]"
        }
      ],
      "stateMutability": "view",
      "type": "function"
    },
    {
      "inputs": [
        {
          "internalType": "address",
          "name": "user",
          "type": "address"
        }
      ],
      "name": "balancesOf",
      "outputs": [
        {
          "internalType": "uint256",
          "name": "_vipBlack",
          "type": "uint256"
        },
        {
          "internalType": "uint256",
          "name": "_vipBlue",
          "type": "uint256"
        },
        {
          "internalType": "uint256",
          "name": "_black",
          "type": "uint256"
        },
        {
          "internalType": "uint256",
          "name": "_blue",
          "type": "uint256"
        }
      ],
      "stateMutability": "view",
      "type": "function"
    },
    {
      "inputs": [
        {
          "internalType": "address",
          "name": "",
          "type": "address"
        }
      ],
      "name": "bitCoinAddress",
      "outputs": [
        {
          "internalType": "string",
          "name": "",
          "type": "string"
        }
      ],
      "stateMutability": "view",
      "type": "function"
    },
    {
      "inputs": [],
      "name": "black",
      "outputs": [
        {
          "internalType": "uint8",
          "name": "id",
          "type": "uint8"
        },
        {
          "internalType": "uint256",
          "name": "hashRate",
          "type": "uint256"
        },
        {
          "internalType": "uint256",
          "name": "price",
          "type": "uint256"
        },
        {
          "internalType": "uint256",
          "name": "terraHashedSold",
          "type": "uint256"
        }
      ],
      "stateMutability": "view",
      "type": "function"
    },
    {
      "inputs": [],
      "name": "blue",
      "outputs": [
        {
          "internalType": "uint8",
          "name": "id",
          "type": "uint8"
        },
        {
          "internalType": "uint256",
          "name": "hashRate",
          "type": "uint256"
        },
        {
          "internalType": "uint256",
          "name": "price",
          "type": "uint256"
        },
        {
          "internalType": "uint256",
          "name": "terraHashedSold",
          "type": "uint256"
        }
      ],
      "stateMutability": "view",
      "type": "function"
    },
    {
      "inputs": [
        {
          "internalType": "address",
          "name": "",
          "type": "address"
        }
      ],
      "name": "emailAddress",
      "outputs": [
        {
          "internalType": "string",
          "name": "",
          "type": "string"
        }
      ],
      "stateMutability": "view",
      "type": "function"
    },
    {
      "inputs": [
        {
          "internalType": "uint256",
          "name": "id",
          "type": "uint256"
        }
      ],
      "name": "exists",
      "outputs": [
        {
          "internalType": "bool",
          "name": "",
          "type": "bool"
        }
      ],
      "stateMutability": "view",
      "type": "function"
    },
    {
      "inputs": [
        {
          "internalType": "uint256",
          "name": "_THForpresale",
          "type": "uint256"
        },
        {
          "internalType": "uint256",
          "name": "_THForPublicsale",
          "type": "uint256"
        }
      ],
      "name": "extendTerraHashes",
      "outputs": [],
      "stateMutability": "nonpayable",
      "type": "function"
    },
    {
      "inputs": [
        {
          "internalType": "address",
          "name": "user",
          "type": "address"
        }
      ],
      "name": "hashesOf",
      "outputs": [
        {
          "internalType": "uint256",
          "name": "_vipBlackHash",
          "type": "uint256"
        },
        {
          "internalType": "uint256",
          "name": "_vipBlueHash",
          "type": "uint256"
        },
        {
          "internalType": "uint256",
          "name": "_blackHash",
          "type": "uint256"
        },
        {
          "internalType": "uint256",
          "name": "_blueHash",
          "type": "uint256"
        }
      ],
      "stateMutability": "view",
      "type": "function"
    },
    {
      "inputs": [
        {
          "internalType": "address",
          "name": "account",
          "type": "address"
        },
        {
          "internalType": "address",
          "name": "operator",
          "type": "address"
        }
      ],
      "name": "isApprovedForAll",
      "outputs": [
        {
          "internalType": "bool",
          "name": "",
          "type": "bool"
        }
      ],
      "stateMutability": "view",
      "type": "function"
    },
    {
      "inputs": [
        {
          "internalType": "enum BitStackerNFT.Category",
          "name": "_category",
          "type": "uint8"
        },
        {
          "internalType": "uint256",
          "name": "_amount",
          "type": "uint256"
        },
        {
          "internalType": "string",
          "name": "_bitcoinAddress",
          "type": "string"
        },
        {
          "internalType": "string",
          "name": "_emailAddress",
          "type": "string"
        }
      ],
      "name": "mint",
      "outputs": [],
      "stateMutability": "payable",
      "type": "function"
    },
    {
      "inputs": [],
      "name": "name",
      "outputs": [
        {
          "internalType": "string",
          "name": "",
          "type": "string"
        }
      ],
      "stateMutability": "view",
      "type": "function"
    },
    {
      "inputs": [],
      "name": "owner",
      "outputs": [
        {
          "internalType": "address",
          "name": "",
          "type": "address"
        }
      ],
      "stateMutability": "view",
      "type": "function"
    },
    {
      "inputs": [],
      "name": "renounceOwnership",
      "outputs": [],
      "stateMutability": "nonpayable",
      "type": "function"
    },
    {
      "inputs": [
        {
          "internalType": "string",
          "name": "_bitcoinAddress",
          "type": "string"
        },
        {
          "internalType": "string",
          "name": "_emailAddress",
          "type": "string"
        }
      ],
      "name": "resetPersonalData",
      "outputs": [],
      "stateMutability": "nonpayable",
      "type": "function"
    },
    {
      "inputs": [
        {
          "internalType": "address",
          "name": "from",
          "type": "address"
        },
        {
          "internalType": "address",
          "name": "to",
          "type": "address"
        },
        {
          "internalType": "uint256[]",
          "name": "ids",
          "type": "uint256[]"
        },
        {
          "internalType": "uint256[]",
          "name": "amounts",
          "type": "uint256[]"
        },
        {
          "internalType": "bytes",
          "name": "data",
          "type": "bytes"
        }
      ],
      "name": "safeBatchTransferFrom",
      "outputs": [],
      "stateMutability": "nonpayable",
      "type": "function"
    },
    {
      "inputs": [
        {
          "internalType": "address",
          "name": "from",
          "type": "address"
        },
        {
          "internalType": "address",
          "name": "to",
          "type": "address"
        },
        {
          "internalType": "uint256",
          "name": "id",
          "type": "uint256"
        },
        {
          "internalType": "uint256",
          "name": "amount",
          "type": "uint256"
        },
        {
          "internalType": "bytes",
          "name": "data",
          "type": "bytes"
        }
      ],
      "name": "safeTransferFrom",
      "outputs": [],
      "stateMutability": "nonpayable",
      "type": "function"
    },
    {
      "inputs": [],
      "name": "saleType",
      "outputs": [
        {
          "internalType": "enum BitStackerNFT.SaleTpe",
          "name": "",
          "type": "uint8"
        }
      ],
      "stateMutability": "view",
      "type": "function"
    },
    {
      "inputs": [
        {
          "internalType": "address",
          "name": "operator",
          "type": "address"
        },
        {
          "internalType": "bool",
          "name": "approved",
          "type": "bool"
        }
      ],
      "name": "setApprovalForAll",
      "outputs": [],
      "stateMutability": "nonpayable",
      "type": "function"
    },
    {
      "inputs": [
        {
          "internalType": "enum BitStackerNFT.SaleTpe",
          "name": "_saleType",
          "type": "uint8"
        }
      ],
      "name": "setSaleType",
      "outputs": [],
      "stateMutability": "nonpayable",
      "type": "function"
    },
    {
      "inputs": [
        {
          "internalType": "bytes4",
          "name": "interfaceId",
          "type": "bytes4"
        }
      ],
      "name": "supportsInterface",
      "outputs": [
        {
          "internalType": "bool",
          "name": "",
          "type": "bool"
        }
      ],
      "stateMutability": "view",
      "type": "function"
    },
    {
      "inputs": [],
      "name": "terrahashesAvailabe",
      "outputs": [
        {
          "internalType": "uint256",
          "name": "",
          "type": "uint256"
        }
      ],
      "stateMutability": "view",
      "type": "function"
    },
    {
      "inputs": [],
      "name": "totalPresaleTerraHashesSold",
      "outputs": [
        {
          "internalType": "uint256",
          "name": "",
          "type": "uint256"
        }
      ],
      "stateMutability": "view",
      "type": "function"
    },
    {
      "inputs": [],
      "name": "totalPublicsaleterraHashesSold",
      "outputs": [
        {
          "internalType": "uint256",
          "name": "",
          "type": "uint256"
        }
      ],
      "stateMutability": "view",
      "type": "function"
    },
    {
      "inputs": [
        {
          "internalType": "uint256",
          "name": "id",
          "type": "uint256"
        }
      ],
      "name": "totalSupply",
      "outputs": [
        {
          "internalType": "uint256",
          "name": "",
          "type": "uint256"
        }
      ],
      "stateMutability": "view",
      "type": "function"
    },
    {
      "inputs": [],
      "name": "totalTerraHashes",
      "outputs": [
        {
          "internalType": "uint256",
          "name": "",
          "type": "uint256"
        }
      ],
      "stateMutability": "view",
      "type": "function"
    },
    {
      "inputs": [
        {
          "internalType": "address",
          "name": "newOwner",
          "type": "address"
        }
      ],
      "name": "transferOwnership",
      "outputs": [],
      "stateMutability": "nonpayable",
      "type": "function"
    },
    {
      "inputs": [
        {
          "internalType": "uint256",
          "name": "_tokenid",
          "type": "uint256"
        }
      ],
      "name": "uri",
      "outputs": [
        {
          "internalType": "string",
          "name": "",
          "type": "string"
        }
      ],
      "stateMutability": "view",
      "type": "function"
    },
    {
      "inputs": [],
      "name": "vipBlack",
      "outputs": [
        {
          "internalType": "uint8",
          "name": "id",
          "type": "uint8"
        },
        {
          "internalType": "uint256",
          "name": "hashRate",
          "type": "uint256"
        },
        {
          "internalType": "uint256",
          "name": "price",
          "type": "uint256"
        },
        {
          "internalType": "uint256",
          "name": "terraHashedSold",
          "type": "uint256"
        }
      ],
      "stateMutability": "view",
      "type": "function"
    },
    {
      "inputs": [],
      "name": "vipBlue",
      "outputs": [
        {
          "internalType": "uint8",
          "name": "id",
          "type": "uint8"
        },
        {
          "internalType": "uint256",
          "name": "hashRate",
          "type": "uint256"
        },
        {
          "internalType": "uint256",
          "name": "price",
          "type": "uint256"
        },
        {
          "internalType": "uint256",
          "name": "terraHashedSold",
          "type": "uint256"
        }
      ],
      "stateMutability": "view",
      "type": "function"
    },
    {
      "inputs": [],
      "name": "withdrawFunds",
      "outputs": [],
      "stateMutability": "nonpayable",
      "type": "function"
    }
  ],
  "transactionHash": "0xa816633b102bd65a22d3667e79af0e35664f4be8197e2c43abec739552650952",
  "args": [],
  "numDeployments": 1,
  "solcInputHash": "37c4db9d94b14ebbf42d58ad4ee35837",
  "bytecode": "0x60806040526201d4c06005819055619c4060068190556200002091620002e9565b6007556040805160808082018352600080835260286020808501829052671bc16d674ec8000085870181905260609586018490526008805460ff19908116909155600993909355600a55600b83905585518085018752600180825260048284018190526702c68af0bb140000838a01819052928801869052600c80548616909217909155600d819055600e829055600f8590558751808701895260028082526014828601819052670de0b6b3a7640000838c01819052928a018890526010805488169092179091556011818155601292909255601387905589519788018a526003808952888601849052888b01859052979098018690528754909416909517909555601593909355601693909355601755825180840190935281835270426974537461636b657220546f6b656e7360781b9201918252620001649160189162000243565b5060405180608001604052806044815260200162002b27604491398051620001959160199160209091019062000243565b50601c805460ff19169055348015620001ad57600080fd5b50604080516020810190915260008152620001c833620001da565b620001d3816200022a565b506200034d565b600080546001600160a01b038381166001600160a01b0319831681178455604051919092169283917f8be0079c531659141344cd1fd0a4f28419497f9722a3daafe3b4186f6b6457e09190a35050565b80516200023f90600390602084019062000243565b5050565b828054620002519062000310565b90600052602060002090601f016020900481019282620002755760008555620002c0565b82601f106200029057805160ff1916838001178555620002c0565b82800160010185558215620002c0579182015b82811115620002c0578251825591602001919060010190620002a3565b50620002ce929150620002d2565b5090565b5b80821115620002ce5760008155600101620002d3565b600082198211156200030b57634e487b7160e01b600052601160045260246000fd5b500190565b600181811c908216806200032557607f821691505b602082108114156200034757634e487b7160e01b600052602260045260246000fd5b50919050565b6127ca806200035d6000396000f3fe6080604052600436106101f85760003560e01c8063a22cb4651161010d578063d80df242116100a0578063ed18f0a71161006f578063ed18f0a714610613578063f242432a14610639578063f2fde38b14610659578063fe2ee3a014610679578063ffbc49cf1461069957600080fd5b8063d80df2421461057f578063db2ea71e14610595578063e985e9c5146105b5578063e9de7cc0146105fe57600080fd5b8063bd85b039116100dc578063bd85b039146104fc578063bdd3ad2c14610529578063c130c58c14610549578063c56ea1ee1461056957600080fd5b8063a22cb46514610483578063b50a707b146104a3578063b5aaf542146104c9578063bcdba104146104e957600080fd5b80635bcc79281161019057806380dc37a21161015f57806380dc37a2146103d15780638a95eb20146103e75780638b8fd3bd146103fc5780638da5cb5b14610446578063a0d2a9cc1461046e57600080fd5b80635bcc7928146103355780636392a51f1461035c578063715018a61461039c57806374621b7d146103b157600080fd5b806324600fc3116101cc57806324600fc3146102a25780632eb2c2d6146102b95780634e1273f4146102d95780634f558e791461030657600080fd5b8062fdd58e146101fd57806301ffc9a71461023057806306fdde03146102605780630e89341c14610282575b600080fd5b34801561020957600080fd5b5061021d610218366004611cb5565b6106bf565b6040519081526020015b60405180910390f35b34801561023c57600080fd5b5061025061024b366004611cf5565b610757565b6040519015158152602001610227565b34801561026c57600080fd5b506102756107a9565b6040516102279190611d75565b34801561028e57600080fd5b5061027561029d366004611d88565b610837565b3480156102ae57600080fd5b506102b7610898565b005b3480156102c557600080fd5b506102b76102d4366004611eed565b610937565b3480156102e557600080fd5b506102f96102f4366004611f97565b610983565b604051610227919061209d565b34801561031257600080fd5b50610250610321366004611d88565b600090815260046020526040902054151590565b34801561034157600080fd5b50601c5461034f9060ff1681565b60405161022791906120c6565b34801561036857600080fd5b5061037c6103773660046120ee565b610aad565b604080519485526020850193909352918301526060820152608001610227565b3480156103a857600080fd5b506102b7610aee565b3480156103bd57600080fd5b506102b76103cc366004612109565b610b02565b3480156103dd57600080fd5b5061021d60075481565b3480156103f357600080fd5b5061021d610b25565b34801561040857600080fd5b506010546011546012546013546104229360ff1692919084565b6040805160ff90951685526020850193909352918301526060820152608001610227565b34801561045257600080fd5b506000546040516001600160a01b039091168152602001610227565b34801561047a57600080fd5b5061021d610b53565b34801561048f57600080fd5b506102b761049e36600461212b565b610b65565b3480156104af57600080fd5b50600854600954600a54600b546104229360ff1692919084565b3480156104d557600080fd5b506102b76104e4366004612167565b610b70565b6102b76104f7366004612188565b610b9f565b34801561050857600080fd5b5061021d610517366004611d88565b60009081526004602052604090205490565b34801561053557600080fd5b5061037c6105443660046120ee565b610f6d565b34801561055557600080fd5b506102b761056436600461220c565b610fdf565b34801561057557600080fd5b5061021d60065481565b34801561058b57600080fd5b5061021d60055481565b3480156105a157600080fd5b506102756105b03660046120ee565b611025565b3480156105c157600080fd5b506102506105d0366004612266565b6001600160a01b03918216600090815260026020908152604080832093909416825291909152205460ff1690565b34801561060a57600080fd5b5061021d61103e565b34801561061f57600080fd5b506014546015546016546017546104229360ff1692919084565b34801561064557600080fd5b506102b7610654366004612299565b611050565b34801561066557600080fd5b506102b76106743660046120ee565b611095565b34801561068557600080fd5b506102756106943660046120ee565b61110e565b3480156106a557600080fd5b50600c54600d54600e54600f546104229360ff1692919084565b60006001600160a01b03831661072f5760405162461bcd60e51b815260206004820152602a60248201527f455243313135353a2061646472657373207a65726f206973206e6f742061207660448201526930b634b21037bbb732b960b11b60648201526084015b60405180910390fd5b5060009081526001602090815260408083206001600160a01b03949094168352929052205490565b60006001600160e01b03198216636cdb3d1360e11b148061078857506001600160e01b031982166303a24d0760e21b145b806107a357506301ffc9a760e01b6001600160e01b03198316145b92915050565b601880546107b6906122fe565b80601f01602080910402602001604051908101604052809291908181526020018280546107e2906122fe565b801561082f5780601f106108045761010080835404028352916020019161082f565b820191906000526020600020905b81548152906001019060200180831161081257829003601f168201915b505050505081565b6000818152600460205260409020546060906108665760405163090a452960e31b815260040160405180910390fd5b601961087183611127565b604051602001610882929190612355565b6040516020818303038152906040529050919050565b6108a061122d565b47806108bf5760405163341a36d360e21b815260040160405180910390fd5b600080546040516001600160a01b039091169083908381818185875af1925050503d806000811461090c576040519150601f19603f3d011682016040523d82523d6000602084013e610911565b606091505b5050905080610933576040516312e0222360e21b815260040160405180910390fd5b5050565b6001600160a01b038516331480610953575061095385336105d0565b61096f5760405162461bcd60e51b815260040161072690612410565b61097c8585858585611287565b5050505050565b606081518351146109e85760405162461bcd60e51b815260206004820152602960248201527f455243313135353a206163636f756e747320616e6420696473206c656e677468604482015268040dad2e6dac2e8c6d60bb1b6064820152608401610726565b6000835167ffffffffffffffff811115610a0457610a04611da1565b604051908082528060200260200182016040528015610a2d578160200160208202803683370190505b50905060005b8451811015610aa557610a78858281518110610a5157610a5161245f565b6020026020010151858381518110610a6b57610a6b61245f565b60200260200101516106bf565b828281518110610a8a57610a8a61245f565b6020908102919091010152610a9e8161248b565b9050610a33565b509392505050565b600080600080610abe8560006106bf565b9350610acb8560016106bf565b9250610ad88560026106bf565b9150610ae58560036106bf565b90509193509193565b610af661122d565b610b006000611475565b565b610b0a61122d565b60058290556006819055610b1e81836124a6565b6007555050565b6000610b2f61103e565b610b37610b53565b610b4191906124a6565b600754610b4e91906124be565b905090565b600f54600b54600091610b4e916124a6565b6109333383836114c5565b610b7861122d565b601c805482919060ff19166001836002811115610b9757610b976120b0565b021790555050565b6000601c5460ff166002811115610bb857610bb86120b0565b1415610bd75760405163336affa360e01b815260040160405180910390fd5b6001601c5460ff166002811115610bf057610bf06120b0565b1415610d9e576000846003811115610c0a57610c0a6120b0565b1415610cda57600a54600090610c219085906124d5565b905080341015610c4457604051631cf2628760e31b815260040160405180910390fd5b600954600090610c559086906124d5565b905060055481610c63610b53565b610c6d91906124a6565b1115610c8c57604051636304271f60e01b815260040160405180910390fd5b8060086003016000828254610ca191906124a6565b90915550610cd3905033876003811115610cbd57610cbd6120b0565b87604051806020016040528060008152506115a6565b5050610f2c565b6001846003811115610cee57610cee6120b0565b1415610d8557600e54600090610d059085906124d5565b905080341015610d2857604051631cf2628760e31b815260040160405180910390fd5b600d54600090610d399086906124d5565b905060055481610d47610b53565b610d5191906124a6565b1115610d7057604051636304271f60e01b815260040160405180910390fd5b80600c6003016000828254610ca191906124a6565b604051634d85ed5d60e11b815260040160405180910390fd5b6002601c5460ff166002811115610db757610db76120b0565b1415610f2c576002846003811115610dd157610dd16120b0565b1415610e6857601254600090610de89085906124d5565b905080341015610e0b57604051631cf2628760e31b815260040160405180910390fd5b601154600090610e1c9086906124d5565b905060065481610e2a61103e565b610e3491906124a6565b1115610e5357604051636304271f60e01b815260040160405180910390fd5b8060106003016000828254610ca191906124a6565b6003846003811115610e7c57610e7c6120b0565b1415610f1357601654600090610e939085906124d5565b905080341015610eb657604051631cf2628760e31b815260040160405180910390fd5b601554600090610ec79086906124d5565b905060065481610ed561103e565b610edf91906124a6565b1115610efe57604051636304271f60e01b815260040160405180910390fd5b8060146003016000828254610ca191906124a6565b60405163019d1a8f60e21b815260040160405180910390fd5b336000908152601a602090815260409091208351610f4c92850190611c00565b50336000908152601b60209081526040909120825161097c92840190611c00565b600080600080600860010154610f848660006106bf565b610f8e91906124d5565b600d54909450610f9f8660016106bf565b610fa991906124d5565b601154909350610fba8660026106bf565b610fc491906124d5565b601554909250610fd58660036106bf565b610ae591906124d5565b336000908152601a602090815260409091208351610fff92850190611c00565b50336000908152601b60209081526040909120825161102092840190611c00565b505050565b601a60205260009081526040902080546107b6906122fe565b601754601354600091610b4e916124a6565b6001600160a01b03851633148061106c575061106c85336105d0565b6110885760405162461bcd60e51b815260040161072690612410565b61097c85858585856116cb565b61109d61122d565b6001600160a01b0381166111025760405162461bcd60e51b815260206004820152602660248201527f4f776e61626c653a206e6577206f776e657220697320746865207a65726f206160448201526564647265737360d01b6064820152608401610726565b61110b81611475565b50565b601b60205260009081526040902080546107b6906122fe565b60608161114b5750506040805180820190915260018152600360fc1b602082015290565b8160005b8115611175578061115f8161248b565b915061116e9050600a8361250a565b915061114f565b60008167ffffffffffffffff81111561119057611190611da1565b6040519080825280601f01601f1916602001820160405280156111ba576020820181803683370190505b5090505b8415611225576111cf6001836124be565b91506111dc600a8661251e565b6111e79060306124a6565b60f81b8183815181106111fc576111fc61245f565b60200101906001600160f81b031916908160001a90535061121e600a8661250a565b94506111be565b949350505050565b6000546001600160a01b03163314610b005760405162461bcd60e51b815260206004820181905260248201527f4f776e61626c653a2063616c6c6572206973206e6f7420746865206f776e65726044820152606401610726565b81518351146112e95760405162461bcd60e51b815260206004820152602860248201527f455243313135353a2069647320616e6420616d6f756e7473206c656e677468206044820152670dad2e6dac2e8c6d60c31b6064820152608401610726565b6001600160a01b03841661130f5760405162461bcd60e51b815260040161072690612532565b3361131e818787878787611807565b60005b845181101561140757600085828151811061133e5761133e61245f565b60200260200101519050600085838151811061135c5761135c61245f565b60209081029190910181015160008481526001835260408082206001600160a01b038e1683529093529190912054909150818110156113ad5760405162461bcd60e51b815260040161072690612577565b60008381526001602090815260408083206001600160a01b038e8116855292528083208585039055908b168252812080548492906113ec9084906124a6565b92505081905550505050806114009061248b565b9050611321565b50846001600160a01b0316866001600160a01b0316826001600160a01b03167f4a39dc06d4c0dbc64b70af90fd698a233a518aa5d07e595d983b8c0526c8f7fb87876040516114579291906125c1565b60405180910390a461146d818787878787611980565b505050505050565b600080546001600160a01b038381166001600160a01b0319831681178455604051919092169283917f8be0079c531659141344cd1fd0a4f28419497f9722a3daafe3b4186f6b6457e09190a35050565b816001600160a01b0316836001600160a01b031614156115395760405162461bcd60e51b815260206004820152602960248201527f455243313135353a2073657474696e6720617070726f76616c20737461747573604482015268103337b91039b2b63360b91b6064820152608401610726565b6001600160a01b03838116600081815260026020908152604080832094871680845294825291829020805460ff191686151590811790915591519182527f17307eab39ab6107e8899845ad3d59bd9653f200f220920489ca2b5937696c31910160405180910390a3505050565b6001600160a01b0384166116065760405162461bcd60e51b815260206004820152602160248201527f455243313135353a206d696e7420746f20746865207a65726f206164647265736044820152607360f81b6064820152608401610726565b33600061161285611aeb565b9050600061161f85611aeb565b905061163083600089858589611807565b60008681526001602090815260408083206001600160a01b038b168452909152812080548792906116629084906124a6565b909155505060408051878152602081018790526001600160a01b03808a1692600092918716917fc3d58168c5ae7397731d063d5bbf3d657854427343f4c083240f7aacaa2d0f62910160405180910390a46116c283600089898989611b36565b50505050505050565b6001600160a01b0384166116f15760405162461bcd60e51b815260040161072690612532565b3360006116fd85611aeb565b9050600061170a85611aeb565b905061171a838989858589611807565b60008681526001602090815260408083206001600160a01b038c1684529091529020548581101561175d5760405162461bcd60e51b815260040161072690612577565b60008781526001602090815260408083206001600160a01b038d8116855292528083208985039055908a1682528120805488929061179c9084906124a6565b909155505060408051888152602081018890526001600160a01b03808b16928c821692918816917fc3d58168c5ae7397731d063d5bbf3d657854427343f4c083240f7aacaa2d0f62910160405180910390a46117fc848a8a8a8a8a611b36565b505050505050505050565b6001600160a01b03851661188e5760005b835181101561188c578281815181106118335761183361245f565b6020026020010151600460008684815181106118515761185161245f565b60200260200101518152602001908152602001600020600082825461187691906124a6565b9091555061188590508161248b565b9050611818565b505b6001600160a01b03841661146d5760005b83518110156116c25760008482815181106118bc576118bc61245f565b6020026020010151905060008483815181106118da576118da61245f565b602002602001015190506000600460008481526020019081526020016000205490508181101561195d5760405162461bcd60e51b815260206004820152602860248201527f455243313135353a206275726e20616d6f756e74206578636565647320746f74604482015267616c537570706c7960c01b6064820152608401610726565b600092835260046020526040909220910390556119798161248b565b905061189f565b6001600160a01b0384163b1561146d5760405163bc197c8160e01b81526001600160a01b0385169063bc197c81906119c490899089908890889088906004016125e6565b602060405180830381600087803b1580156119de57600080fd5b505af1925050508015611a0e575060408051601f3d908101601f19168201909252611a0b91810190612644565b60015b611abb57611a1a612661565b806308c379a01415611a545750611a2f61267d565b80611a3a5750611a56565b8060405162461bcd60e51b81526004016107269190611d75565b505b60405162461bcd60e51b815260206004820152603460248201527f455243313135353a207472616e7366657220746f206e6f6e20455243313135356044820152732932b1b2b4bb32b91034b6b83632b6b2b73a32b960611b6064820152608401610726565b6001600160e01b0319811663bc197c8160e01b146116c25760405162461bcd60e51b815260040161072690612707565b60408051600180825281830190925260609160009190602080830190803683370190505090508281600081518110611b2557611b2561245f565b602090810291909101015292915050565b6001600160a01b0384163b1561146d5760405163f23a6e6160e01b81526001600160a01b0385169063f23a6e6190611b7a908990899088908890889060040161274f565b602060405180830381600087803b158015611b9457600080fd5b505af1925050508015611bc4575060408051601f3d908101601f19168201909252611bc191810190612644565b60015b611bd057611a1a612661565b6001600160e01b0319811663f23a6e6160e01b146116c25760405162461bcd60e51b815260040161072690612707565b828054611c0c906122fe565b90600052602060002090601f016020900481019282611c2e5760008555611c74565b82601f10611c4757805160ff1916838001178555611c74565b82800160010185558215611c74579182015b82811115611c74578251825591602001919060010190611c59565b50611c80929150611c84565b5090565b5b80821115611c805760008155600101611c85565b80356001600160a01b0381168114611cb057600080fd5b919050565b60008060408385031215611cc857600080fd5b611cd183611c99565b946020939093013593505050565b6001600160e01b03198116811461110b57600080fd5b600060208284031215611d0757600080fd5b8135611d1281611cdf565b9392505050565b60005b83811015611d34578181015183820152602001611d1c565b83811115611d43576000848401525b50505050565b60008151808452611d61816020860160208601611d19565b601f01601f19169290920160200192915050565b602081526000611d126020830184611d49565b600060208284031215611d9a57600080fd5b5035919050565b634e487b7160e01b600052604160045260246000fd5b601f8201601f1916810167ffffffffffffffff81118282101715611ddd57611ddd611da1565b6040525050565b600067ffffffffffffffff821115611dfe57611dfe611da1565b5060051b60200190565b600082601f830112611e1957600080fd5b81356020611e2682611de4565b604051611e338282611db7565b83815260059390931b8501820192828101915086841115611e5357600080fd5b8286015b84811015611e6e5780358352918301918301611e57565b509695505050505050565b600082601f830112611e8a57600080fd5b813567ffffffffffffffff811115611ea457611ea4611da1565b604051611ebb601f8301601f191660200182611db7565b818152846020838601011115611ed057600080fd5b816020850160208301376000918101602001919091529392505050565b600080600080600060a08688031215611f0557600080fd5b611f0e86611c99565b9450611f1c60208701611c99565b9350604086013567ffffffffffffffff80821115611f3957600080fd5b611f4589838a01611e08565b94506060880135915080821115611f5b57600080fd5b611f6789838a01611e08565b93506080880135915080821115611f7d57600080fd5b50611f8a88828901611e79565b9150509295509295909350565b60008060408385031215611faa57600080fd5b823567ffffffffffffffff80821115611fc257600080fd5b818501915085601f830112611fd657600080fd5b81356020611fe382611de4565b604051611ff08282611db7565b83815260059390931b850182019282810191508984111561201057600080fd5b948201945b838610156120355761202686611c99565b82529482019490820190612015565b9650508601359250508082111561204b57600080fd5b5061205885828601611e08565b9150509250929050565b600081518084526020808501945080840160005b8381101561209257815187529582019590820190600101612076565b509495945050505050565b602081526000611d126020830184612062565b634e487b7160e01b600052602160045260246000fd5b60208101600383106120e857634e487b7160e01b600052602160045260246000fd5b91905290565b60006020828403121561210057600080fd5b611d1282611c99565b6000806040838503121561211c57600080fd5b50508035926020909101359150565b6000806040838503121561213e57600080fd5b61214783611c99565b91506020830135801515811461215c57600080fd5b809150509250929050565b60006020828403121561217957600080fd5b813560038110611d1257600080fd5b6000806000806080858703121561219e57600080fd5b8435600481106121ad57600080fd5b935060208501359250604085013567ffffffffffffffff808211156121d157600080fd5b6121dd88838901611e79565b935060608701359150808211156121f357600080fd5b5061220087828801611e79565b91505092959194509250565b6000806040838503121561221f57600080fd5b823567ffffffffffffffff8082111561223757600080fd5b61224386838701611e79565b9350602085013591508082111561225957600080fd5b5061205885828601611e79565b6000806040838503121561227957600080fd5b61228283611c99565b915061229060208401611c99565b90509250929050565b600080600080600060a086880312156122b157600080fd5b6122ba86611c99565b94506122c860208701611c99565b93506040860135925060608601359150608086013567ffffffffffffffff8111156122f257600080fd5b611f8a88828901611e79565b600181811c9082168061231257607f821691505b6020821081141561233357634e487b7160e01b600052602260045260246000fd5b50919050565b6000815161234b818560208601611d19565b9290920192915050565b600080845481600182811c91508083168061237157607f831692505b602080841082141561239157634e487b7160e01b86526022600452602486fd5b8180156123a557600181146123b6576123e3565b60ff198616895284890196506123e3565b60008b81526020902060005b868110156123db5781548b8201529085019083016123c2565b505084890196505b5050505050506124076123f68286612339565b64173539b7b760d91b815260050190565b95945050505050565b6020808252602f908201527f455243313135353a2063616c6c6572206973206e6f7420746f6b656e206f776e60408201526e195c881b9bdc88185c1c1c9bdd9959608a1b606082015260800190565b634e487b7160e01b600052603260045260246000fd5b634e487b7160e01b600052601160045260246000fd5b600060001982141561249f5761249f612475565b5060010190565b600082198211156124b9576124b9612475565b500190565b6000828210156124d0576124d0612475565b500390565b60008160001904831182151516156124ef576124ef612475565b500290565b634e487b7160e01b600052601260045260246000fd5b600082612519576125196124f4565b500490565b60008261252d5761252d6124f4565b500690565b60208082526025908201527f455243313135353a207472616e7366657220746f20746865207a65726f206164604082015264647265737360d81b606082015260800190565b6020808252602a908201527f455243313135353a20696e73756666696369656e742062616c616e636520666f60408201526939103a3930b739b332b960b11b606082015260800190565b6040815260006125d46040830185612062565b82810360208401526124078185612062565b6001600160a01b0386811682528516602082015260a06040820181905260009061261290830186612062565b82810360608401526126248186612062565b905082810360808401526126388185611d49565b98975050505050505050565b60006020828403121561265657600080fd5b8151611d1281611cdf565b600060033d111561267a5760046000803e5060005160e01c5b90565b600060443d101561268b5790565b6040516003193d81016004833e81513d67ffffffffffffffff81602484011181841117156126bb57505050505090565b82850191508151818111156126d35750505050505090565b843d87010160208285010111156126ed5750505050505090565b6126fc60208286010187611db7565b509095945050505050565b60208082526028908201527f455243313135353a204552433131353552656365697665722072656a656374656040820152676420746f6b656e7360c01b606082015260800190565b6001600160a01b03868116825285166020820152604081018490526060810183905260a06080820181905260009061278990830184611d49565b97965050505050505056fea2646970667358221220944fb85811767c71db9b14338e96912f67e1f2e4ef13cbb995fe2543b52a889364736f6c6343000809003368747470733a2f2f697066732e696f2f697066732f516d5874513343644661544d524642417a33364e3437523864684a315245504b6e78614778615334375378726f412f",
  "devdoc": {
    "kind": "dev",
    "methods": {
      "balanceOf(address,uint256)": {
        "details": "See {IERC1155-balanceOf}. Requirements: - `account` cannot be the zero address."
      },
      "balanceOfBatch(address[],uint256[])": {
        "details": "See {IERC1155-balanceOfBatch}. Requirements: - `accounts` and `ids` must have the same length."
      },
      "exists(uint256)": {
        "details": "Indicates whether any token exist with a given id, or not."
      },
      "isApprovedForAll(address,address)": {
        "details": "See {IERC1155-isApprovedForAll}."
      },
      "owner()": {
        "details": "Returns the address of the current owner."
      },
      "renounceOwnership()": {
        "details": "Leaves the contract without owner. It will not be possible to call `onlyOwner` functions anymore. Can only be called by the current owner. NOTE: Renouncing ownership will leave the contract without an owner, thereby removing any functionality that is only available to the owner."
      },
      "safeBatchTransferFrom(address,address,uint256[],uint256[],bytes)": {
        "details": "See {IERC1155-safeBatchTransferFrom}."
      },
      "safeTransferFrom(address,address,uint256,uint256,bytes)": {
        "details": "See {IERC1155-safeTransferFrom}."
      },
      "setApprovalForAll(address,bool)": {
        "details": "See {IERC1155-setApprovalForAll}."
      },
      "supportsInterface(bytes4)": {
        "details": "See {IERC165-supportsInterface}."
      },
      "totalSupply(uint256)": {
        "details": "Total amount of tokens in with a given id."
      },
      "transferOwnership(address)": {
        "details": "Transfers ownership of the contract to a new account (`newOwner`). Can only be called by the current owner."
      }
    },
    "version": 1
  },
  "userdoc": {
    "kind": "user",
    "methods": {},
    "version": 1
  },
  "storageLayout": {
    "storage": [
      {
        "astId": 7,
        "contract": "contracts/BitStackerNFT.sol:BitStackerNFT",
        "label": "_owner",
        "offset": 0,
        "slot": "0",
        "type": "t_address"
      },
      {
        "astId": 138,
        "contract": "contracts/BitStackerNFT.sol:BitStackerNFT",
        "label": "_balances",
        "offset": 0,
        "slot": "1",
        "type": "t_mapping(t_uint256,t_mapping(t_address,t_uint256))"
      },
      {
        "astId": 144,
        "contract": "contracts/BitStackerNFT.sol:BitStackerNFT",
        "label": "_operatorApprovals",
        "offset": 0,
        "slot": "2",
        "type": "t_mapping(t_address,t_mapping(t_address,t_bool))"
      },
      {
        "astId": 146,
        "contract": "contracts/BitStackerNFT.sol:BitStackerNFT",
        "label": "_uri",
        "offset": 0,
        "slot": "3",
        "type": "t_string_storage"
      },
      {
        "astId": 1508,
        "contract": "contracts/BitStackerNFT.sol:BitStackerNFT",
        "label": "_totalSupply",
        "offset": 0,
        "slot": "4",
        "type": "t_mapping(t_uint256,t_uint256)"
      },
      {
        "astId": 2279,
        "contract": "contracts/BitStackerNFT.sol:BitStackerNFT",
        "label": "THForPresale",
        "offset": 0,
        "slot": "5",
        "type": "t_uint256"
      },
      {
        "astId": 2282,
        "contract": "contracts/BitStackerNFT.sol:BitStackerNFT",
        "label": "THForPublicsale",
        "offset": 0,
        "slot": "6",
        "type": "t_uint256"
      },
      {
        "astId": 2287,
        "contract": "contracts/BitStackerNFT.sol:BitStackerNFT",
        "label": "totalTerraHashes",
        "offset": 0,
        "slot": "7",
        "type": "t_uint256"
      },
      {
        "astId": 2296,
        "contract": "contracts/BitStackerNFT.sol:BitStackerNFT",
        "label": "vipBlack",
        "offset": 0,
        "slot": "8",
        "type": "t_struct(Tokentype)2351_storage"
      },
      {
        "astId": 2305,
        "contract": "contracts/BitStackerNFT.sol:BitStackerNFT",
        "label": "vipBlue",
        "offset": 0,
        "slot": "12",
        "type": "t_struct(Tokentype)2351_storage"
      },
      {
        "astId": 2314,
        "contract": "contracts/BitStackerNFT.sol:BitStackerNFT",
        "label": "black",
        "offset": 0,
        "slot": "16",
        "type": "t_struct(Tokentype)2351_storage"
      },
      {
        "astId": 2323,
        "contract": "contracts/BitStackerNFT.sol:BitStackerNFT",
        "label": "blue",
        "offset": 0,
        "slot": "20",
        "type": "t_struct(Tokentype)2351_storage"
      },
      {
        "astId": 2326,
        "contract": "contracts/BitStackerNFT.sol:BitStackerNFT",
        "label": "name",
        "offset": 0,
        "slot": "24",
        "type": "t_string_storage"
      },
      {
        "astId": 2329,
        "contract": "contracts/BitStackerNFT.sol:BitStackerNFT",
        "label": "baseURL",
        "offset": 0,
        "slot": "25",
        "type": "t_string_storage"
      },
      {
        "astId": 2333,
        "contract": "contracts/BitStackerNFT.sol:BitStackerNFT",
        "label": "bitCoinAddress",
        "offset": 0,
        "slot": "26",
        "type": "t_mapping(t_address,t_string_storage)"
      },
      {
        "astId": 2337,
        "contract": "contracts/BitStackerNFT.sol:BitStackerNFT",
        "label": "emailAddress",
        "offset": 0,
        "slot": "27",
        "type": "t_mapping(t_address,t_string_storage)"
      },
      {
        "astId": 2360,
        "contract": "contracts/BitStackerNFT.sol:BitStackerNFT",
        "label": "saleType",
        "offset": 0,
        "slot": "28",
        "type": "t_enum(SaleTpe)2355"
      }
    ],
    "types": {
      "t_address": {
        "encoding": "inplace",
        "label": "address",
        "numberOfBytes": "20"
      },
      "t_bool": {
        "encoding": "inplace",
        "label": "bool",
        "numberOfBytes": "1"
      },
      "t_enum(SaleTpe)2355": {
        "encoding": "inplace",
        "label": "enum BitStackerNFT.SaleTpe",
        "numberOfBytes": "1"
      },
      "t_mapping(t_address,t_bool)": {
        "encoding": "mapping",
        "key": "t_address",
        "label": "mapping(address => bool)",
        "numberOfBytes": "32",
        "value": "t_bool"
      },
      "t_mapping(t_address,t_mapping(t_address,t_bool))": {
        "encoding": "mapping",
        "key": "t_address",
        "label": "mapping(address => mapping(address => bool))",
        "numberOfBytes": "32",
        "value": "t_mapping(t_address,t_bool)"
      },
      "t_mapping(t_address,t_string_storage)": {
        "encoding": "mapping",
        "key": "t_address",
        "label": "mapping(address => string)",
        "numberOfBytes": "32",
        "value": "t_string_storage"
      },
      "t_mapping(t_address,t_uint256)": {
        "encoding": "mapping",
        "key": "t_address",
        "label": "mapping(address => uint256)",
        "numberOfBytes": "32",
        "value": "t_uint256"
      },
      "t_mapping(t_uint256,t_mapping(t_address,t_uint256))": {
        "encoding": "mapping",
        "key": "t_uint256",
        "label": "mapping(uint256 => mapping(address => uint256))",
        "numberOfBytes": "32",
        "value": "t_mapping(t_address,t_uint256)"
      },
      "t_mapping(t_uint256,t_uint256)": {
        "encoding": "mapping",
        "key": "t_uint256",
        "label": "mapping(uint256 => uint256)",
        "numberOfBytes": "32",
        "value": "t_uint256"
      },
      "t_string_storage": {
        "encoding": "bytes",
        "label": "string",
        "numberOfBytes": "32"
      },
      "t_struct(Tokentype)2351_storage": {
        "encoding": "inplace",
        "label": "struct BitStackerNFT.Tokentype",
        "members": [
          {
            "astId": 2344,
            "contract": "contracts/BitStackerNFT.sol:BitStackerNFT",
            "label": "id",
            "offset": 0,
            "slot": "0",
            "type": "t_uint8"
          },
          {
            "astId": 2346,
            "contract": "contracts/BitStackerNFT.sol:BitStackerNFT",
            "label": "hashRate",
            "offset": 0,
            "slot": "1",
            "type": "t_uint256"
          },
          {
            "astId": 2348,
            "contract": "contracts/BitStackerNFT.sol:BitStackerNFT",
            "label": "price",
            "offset": 0,
            "slot": "2",
            "type": "t_uint256"
          },
          {
            "astId": 2350,
            "contract": "contracts/BitStackerNFT.sol:BitStackerNFT",
            "label": "terraHashedSold",
            "offset": 0,
            "slot": "3",
            "type": "t_uint256"
          }
        ],
        "numberOfBytes": "128"
      },
      "t_uint256": {
        "encoding": "inplace",
        "label": "uint256",
        "numberOfBytes": "32"
      },
      "t_uint8": {
        "encoding": "inplace",
        "label": "uint8",
        "numberOfBytes": "1"
      }
    }
  }
}